{
  "_format": "hh-sol-artifact-1",
  "contractName": "ContributorNFT",
  "sourceName": "contracts/ContributorNFT.sol",
  "abi": [
    {
      "inputs": [
        {
          "internalType": "string",
          "name": "_name",
          "type": "string"
        },
        {
          "internalType": "string",
          "name": "_symbol",
          "type": "string"
        },
        {
          "internalType": "string",
          "name": "baseTokenURI",
          "type": "string"
        },
        {
          "internalType": "address[]",
          "name": "daoAdmins",
          "type": "address[]"
        },
        {
          "internalType": "address",
          "name": "_minterAllowerAddr",
          "type": "address"
        },
        {
          "internalType": "bool",
          "name": "_allowTransfers",
          "type": "bool"
        }
      ],
      "stateMutability": "nonpayable",
      "type": "constructor"
    },
    {
      "anonymous": false,
      "inputs": [
        {
          "indexed": true,
          "internalType": "address",
          "name": "owner",
          "type": "address"
        },
        {
          "indexed": true,
          "internalType": "address",
          "name": "approved",
          "type": "address"
        },
        {
          "indexed": true,
          "internalType": "uint256",
          "name": "tokenId",
          "type": "uint256"
        }
      ],
      "name": "Approval",
      "type": "event"
    },
    {
      "anonymous": false,
      "inputs": [
        {
          "indexed": true,
          "internalType": "address",
          "name": "owner",
          "type": "address"
        },
        {
          "indexed": true,
          "internalType": "address",
          "name": "operator",
          "type": "address"
        },
        {
          "indexed": false,
          "internalType": "bool",
          "name": "approved",
          "type": "bool"
        }
      ],
      "name": "ApprovalForAll",
      "type": "event"
    },
    {
      "anonymous": false,
      "inputs": [
        {
          "indexed": true,
          "internalType": "uint256",
          "name": "tokenId",
          "type": "uint256"
        }
      ],
      "name": "BURN",
      "type": "event"
    },
    {
      "anonymous": false,
      "inputs": [
        {
          "indexed": true,
          "internalType": "uint256",
          "name": "tokenId",
          "type": "uint256"
        }
      ],
      "name": "MINT",
      "type": "event"
    },
    {
      "anonymous": false,
      "inputs": [
        {
          "indexed": false,
          "internalType": "address",
          "name": "account",
          "type": "address"
        }
      ],
      "name": "Paused",
      "type": "event"
    },
    {
      "anonymous": false,
      "inputs": [
        {
          "indexed": true,
          "internalType": "bytes32",
          "name": "role",
          "type": "bytes32"
        },
        {
          "indexed": true,
          "internalType": "bytes32",
          "name": "previousAdminRole",
          "type": "bytes32"
        },
        {
          "indexed": true,
          "internalType": "bytes32",
          "name": "newAdminRole",
          "type": "bytes32"
        }
      ],
      "name": "RoleAdminChanged",
      "type": "event"
    },
    {
      "anonymous": false,
      "inputs": [
        {
          "indexed": true,
          "internalType": "bytes32",
          "name": "role",
          "type": "bytes32"
        },
        {
          "indexed": true,
          "internalType": "address",
          "name": "account",
          "type": "address"
        },
        {
          "indexed": true,
          "internalType": "address",
          "name": "sender",
          "type": "address"
        }
      ],
      "name": "RoleGranted",
      "type": "event"
    },
    {
      "anonymous": false,
      "inputs": [
        {
          "indexed": true,
          "internalType": "bytes32",
          "name": "role",
          "type": "bytes32"
        },
        {
          "indexed": true,
          "internalType": "address",
          "name": "account",
          "type": "address"
        },
        {
          "indexed": true,
          "internalType": "address",
          "name": "sender",
          "type": "address"
        }
      ],
      "name": "RoleRevoked",
      "type": "event"
    },
    {
      "anonymous": false,
      "inputs": [
        {
          "indexed": true,
          "internalType": "address",
          "name": "from",
          "type": "address"
        },
        {
          "indexed": true,
          "internalType": "address",
          "name": "to",
          "type": "address"
        },
        {
          "indexed": true,
          "internalType": "uint256",
          "name": "tokenId",
          "type": "uint256"
        }
      ],
      "name": "Transfer",
      "type": "event"
    },
    {
      "anonymous": false,
      "inputs": [
        {
          "indexed": false,
          "internalType": "address",
          "name": "account",
          "type": "address"
        }
      ],
      "name": "Unpaused",
      "type": "event"
    },
    {
      "inputs": [],
      "name": "DAO_ADMIN_ROLE",
      "outputs": [
        {
          "internalType": "bytes32",
          "name": "",
          "type": "bytes32"
        }
      ],
      "stateMutability": "view",
      "type": "function"
    },
    {
      "inputs": [],
      "name": "DEFAULT_ADMIN_ROLE",
      "outputs": [
        {
          "internalType": "bytes32",
          "name": "",
          "type": "bytes32"
        }
      ],
      "stateMutability": "view",
      "type": "function"
    },
    {
      "inputs": [],
      "name": "MINTER_ROLE",
      "outputs": [
        {
          "internalType": "bytes32",
          "name": "",
          "type": "bytes32"
        }
      ],
      "stateMutability": "view",
      "type": "function"
    },
    {
      "inputs": [
        {
          "internalType": "string",
          "name": "name",
          "type": "string"
        },
        {
          "internalType": "address[]",
          "name": "_admins",
          "type": "address[]"
        }
      ],
      "name": "addGuild",
      "outputs": [],
      "stateMutability": "nonpayable",
      "type": "function"
    },
    {
      "inputs": [
        {
          "internalType": "address",
          "name": "to",
          "type": "address"
        },
        {
          "internalType": "uint256",
          "name": "tokenId",
          "type": "uint256"
        }
      ],
      "name": "approve",
      "outputs": [],
      "stateMutability": "nonpayable",
      "type": "function"
    },
    {
      "inputs": [
        {
          "internalType": "address",
          "name": "owner",
          "type": "address"
        }
      ],
      "name": "balanceOf",
      "outputs": [
        {
          "internalType": "uint256",
          "name": "",
          "type": "uint256"
        }
      ],
      "stateMutability": "view",
      "type": "function"
    },
    {
      "inputs": [
        {
          "internalType": "uint256",
          "name": "tokenId",
          "type": "uint256"
        }
      ],
      "name": "burn",
      "outputs": [],
      "stateMutability": "nonpayable",
      "type": "function"
    },
    {
      "inputs": [
        {
          "internalType": "uint256",
          "name": "_tokenId",
          "type": "uint256"
        }
      ],
      "name": "ceramicURI",
      "outputs": [
        {
          "internalType": "string",
          "name": "",
          "type": "string"
        }
      ],
      "stateMutability": "view",
      "type": "function"
    },
    {
      "inputs": [
        {
          "internalType": "uint256",
          "name": "_tokenId",
          "type": "uint256"
        }
      ],
      "name": "changeValidStatus",
      "outputs": [],
      "stateMutability": "nonpayable",
      "type": "function"
    },
    {
      "inputs": [
        {
          "internalType": "uint256",
          "name": "tokenId",
          "type": "uint256"
        }
      ],
      "name": "getApproved",
      "outputs": [
        {
          "internalType": "address",
          "name": "",
          "type": "address"
        }
      ],
      "stateMutability": "view",
      "type": "function"
    },
    {
      "inputs": [
        {
          "internalType": "uint256",
          "name": "_tokenId",
          "type": "uint256"
        }
      ],
      "name": "getCreationDate",
      "outputs": [
        {
          "internalType": "uint256",
          "name": "",
          "type": "uint256"
        }
      ],
      "stateMutability": "view",
      "type": "function"
    },
    {
      "inputs": [],
      "name": "getCurrentGuildsNumber",
      "outputs": [
        {
          "internalType": "uint16",
          "name": "",
          "type": "uint16"
        }
      ],
      "stateMutability": "view",
      "type": "function"
    },
    {
      "inputs": [
        {
          "internalType": "uint16",
          "name": "idx",
          "type": "uint16"
        }
      ],
      "name": "getGuild",
      "outputs": [
        {
          "components": [
            {
              "internalType": "string",
              "name": "name",
              "type": "string"
            },
            {
              "internalType": "address[]",
              "name": "admins",
              "type": "address[]"
            }
          ],
          "internalType": "struct ContributorNFT.Guild",
          "name": "",
          "type": "tuple"
        }
      ],
      "stateMutability": "view",
      "type": "function"
    },
    {
      "inputs": [
        {
          "internalType": "bytes32",
          "name": "role",
          "type": "bytes32"
        }
      ],
      "name": "getRoleAdmin",
      "outputs": [
        {
          "internalType": "bytes32",
          "name": "",
          "type": "bytes32"
        }
      ],
      "stateMutability": "view",
      "type": "function"
    },
    {
      "inputs": [
        {
          "internalType": "bytes32",
          "name": "role",
          "type": "bytes32"
        },
        {
          "internalType": "uint256",
          "name": "index",
          "type": "uint256"
        }
      ],
      "name": "getRoleMember",
      "outputs": [
        {
          "internalType": "address",
          "name": "",
          "type": "address"
        }
      ],
      "stateMutability": "view",
      "type": "function"
    },
    {
      "inputs": [
        {
          "internalType": "bytes32",
          "name": "role",
          "type": "bytes32"
        }
      ],
      "name": "getRoleMemberCount",
      "outputs": [
        {
          "internalType": "uint256",
          "name": "",
          "type": "uint256"
        }
      ],
      "stateMutability": "view",
      "type": "function"
    },
    {
      "inputs": [],
      "name": "getTransferability",
      "outputs": [
        {
          "internalType": "bool",
          "name": "",
          "type": "bool"
        }
      ],
      "stateMutability": "view",
      "type": "function"
    },
    {
      "inputs": [
        {
          "internalType": "bytes32",
          "name": "role",
          "type": "bytes32"
        },
        {
          "internalType": "address",
          "name": "account",
          "type": "address"
        }
      ],
      "name": "grantRole",
      "outputs": [],
      "stateMutability": "nonpayable",
      "type": "function"
    },
    {
      "inputs": [
        {
          "internalType": "bytes32",
          "name": "role",
          "type": "bytes32"
        },
        {
          "internalType": "address",
          "name": "account",
          "type": "address"
        }
      ],
      "name": "hasRole",
      "outputs": [
        {
          "internalType": "bool",
          "name": "",
          "type": "bool"
        }
      ],
      "stateMutability": "view",
      "type": "function"
    },
    {
      "inputs": [
        {
          "internalType": "address",
          "name": "owner",
          "type": "address"
        },
        {
          "internalType": "address",
          "name": "operator",
          "type": "address"
        }
      ],
      "name": "isApprovedForAll",
      "outputs": [
        {
          "internalType": "bool",
          "name": "",
          "type": "bool"
        }
      ],
      "stateMutability": "view",
      "type": "function"
    },
    {
      "inputs": [
        {
          "internalType": "uint256",
          "name": "_tokenId",
          "type": "uint256"
        }
      ],
      "name": "isValid",
      "outputs": [
        {
          "internalType": "bool",
          "name": "",
          "type": "bool"
        }
      ],
      "stateMutability": "view",
      "type": "function"
    },
    {
      "inputs": [
        {
          "internalType": "address",
          "name": "to",
          "type": "address"
        },
        {
          "internalType": "string",
          "name": "_tokenURI",
          "type": "string"
        },
        {
          "internalType": "string",
          "name": "_ceramicStream",
          "type": "string"
        }
      ],
      "name": "mint",
      "outputs": [],
      "stateMutability": "nonpayable",
      "type": "function"
    },
    {
      "inputs": [
        {
          "internalType": "address",
          "name": "to",
          "type": "address"
        },
        {
          "internalType": "string",
          "name": "_tokenURI",
          "type": "string"
        },
        {
          "internalType": "string",
          "name": "_ceramicStream",
          "type": "string"
        },
        {
          "internalType": "bytes",
          "name": "_signature",
          "type": "bytes"
        },
        {
          "internalType": "string",
          "name": "_nonce",
          "type": "string"
        }
      ],
      "name": "mint",
      "outputs": [],
      "stateMutability": "nonpayable",
      "type": "function"
    },
    {
      "inputs": [],
      "name": "name",
      "outputs": [
        {
          "internalType": "string",
          "name": "",
          "type": "string"
        }
      ],
      "stateMutability": "view",
      "type": "function"
    },
    {
      "inputs": [
        {
          "internalType": "uint256",
          "name": "tokenId",
          "type": "uint256"
        }
      ],
      "name": "ownerOf",
      "outputs": [
        {
          "internalType": "address",
          "name": "",
          "type": "address"
        }
      ],
      "stateMutability": "view",
      "type": "function"
    },
    {
      "inputs": [],
      "name": "pause",
      "outputs": [],
      "stateMutability": "nonpayable",
      "type": "function"
    },
    {
      "inputs": [],
      "name": "paused",
      "outputs": [
        {
          "internalType": "bool",
          "name": "",
          "type": "bool"
        }
      ],
      "stateMutability": "view",
      "type": "function"
    },
    {
      "inputs": [
        {
          "internalType": "bytes32",
          "name": "role",
          "type": "bytes32"
        },
        {
          "internalType": "address",
          "name": "account",
          "type": "address"
        }
      ],
      "name": "renounceRole",
      "outputs": [],
      "stateMutability": "nonpayable",
      "type": "function"
    },
    {
      "inputs": [
        {
          "internalType": "address[]",
          "name": "to",
          "type": "address[]"
        },
        {
          "internalType": "string[]",
          "name": "_tokenURI",
          "type": "string[]"
        },
        {
          "internalType": "string[]",
          "name": "_ceramicStream",
          "type": "string[]"
        }
      ],
      "name": "retroactiveMint",
      "outputs": [],
      "stateMutability": "nonpayable",
      "type": "function"
    },
    {
      "inputs": [
        {
          "internalType": "bytes32",
          "name": "role",
          "type": "bytes32"
        },
        {
          "internalType": "address",
          "name": "account",
          "type": "address"
        }
      ],
      "name": "revokeRole",
      "outputs": [],
      "stateMutability": "nonpayable",
      "type": "function"
    },
    {
      "inputs": [
        {
          "internalType": "address",
          "name": "from",
          "type": "address"
        },
        {
          "internalType": "address",
          "name": "to",
          "type": "address"
        },
        {
          "internalType": "uint256",
          "name": "tokenId",
          "type": "uint256"
        }
      ],
      "name": "safeTransferFrom",
      "outputs": [],
      "stateMutability": "nonpayable",
      "type": "function"
    },
    {
      "inputs": [
        {
          "internalType": "address",
          "name": "from",
          "type": "address"
        },
        {
          "internalType": "address",
          "name": "to",
          "type": "address"
        },
        {
          "internalType": "uint256",
          "name": "tokenId",
          "type": "uint256"
        },
        {
          "internalType": "bytes",
          "name": "_data",
          "type": "bytes"
        }
      ],
      "name": "safeTransferFrom",
      "outputs": [],
      "stateMutability": "nonpayable",
      "type": "function"
    },
    {
      "inputs": [
        {
          "internalType": "address",
          "name": "operator",
          "type": "address"
        },
        {
          "internalType": "bool",
          "name": "approved",
          "type": "bool"
        }
      ],
      "name": "setApprovalForAll",
      "outputs": [],
      "stateMutability": "nonpayable",
      "type": "function"
    },
    {
      "inputs": [],
      "name": "setTransferability",
      "outputs": [],
      "stateMutability": "nonpayable",
      "type": "function"
    },
    {
      "inputs": [
        {
          "internalType": "bytes4",
          "name": "interfaceId",
          "type": "bytes4"
        }
      ],
      "name": "supportsInterface",
      "outputs": [
        {
          "internalType": "bool",
          "name": "",
          "type": "bool"
        }
      ],
      "stateMutability": "view",
      "type": "function"
    },
    {
      "inputs": [],
      "name": "symbol",
      "outputs": [
        {
          "internalType": "string",
          "name": "",
          "type": "string"
        }
      ],
      "stateMutability": "view",
      "type": "function"
    },
    {
      "inputs": [
        {
          "internalType": "uint256",
          "name": "index",
          "type": "uint256"
        }
      ],
      "name": "tokenByIndex",
      "outputs": [
        {
          "internalType": "uint256",
          "name": "",
          "type": "uint256"
        }
      ],
      "stateMutability": "view",
      "type": "function"
    },
    {
      "inputs": [
        {
          "internalType": "address",
          "name": "owner",
          "type": "address"
        },
        {
          "internalType": "uint256",
          "name": "index",
          "type": "uint256"
        }
      ],
      "name": "tokenOfOwnerByIndex",
      "outputs": [
        {
          "internalType": "uint256",
          "name": "",
          "type": "uint256"
        }
      ],
      "stateMutability": "view",
      "type": "function"
    },
    {
      "inputs": [
        {
          "internalType": "uint256",
          "name": "_tokenId",
          "type": "uint256"
        }
      ],
      "name": "tokenURI",
      "outputs": [
        {
          "internalType": "string",
          "name": "",
          "type": "string"
        }
      ],
      "stateMutability": "view",
      "type": "function"
    },
    {
      "inputs": [],
      "name": "totalSupply",
      "outputs": [
        {
          "internalType": "uint256",
          "name": "",
          "type": "uint256"
        }
      ],
      "stateMutability": "view",
      "type": "function"
    },
    {
      "inputs": [
        {
          "internalType": "address",
          "name": "from",
          "type": "address"
        },
        {
          "internalType": "address",
          "name": "to",
          "type": "address"
        },
        {
          "internalType": "uint256",
          "name": "tokenId",
          "type": "uint256"
        }
      ],
      "name": "transferFrom",
      "outputs": [],
      "stateMutability": "nonpayable",
      "type": "function"
    },
    {
      "inputs": [],
      "name": "unpause",
      "outputs": [],
      "stateMutability": "nonpayable",
      "type": "function"
    },
    {
      "inputs": [
        {
          "internalType": "uint256",
          "name": "",
          "type": "uint256"
        }
      ],
      "name": "valid",
      "outputs": [
        {
          "internalType": "bool",
          "name": "",
          "type": "bool"
        }
      ],
      "stateMutability": "view",
      "type": "function"
    },
    {
      "inputs": [
        {
          "internalType": "bytes",
          "name": "_signature",
          "type": "bytes"
        },
        {
          "internalType": "string",
          "name": "_nonce",
          "type": "string"
        }
      ],
      "name": "validateSignature",
      "outputs": [],
      "stateMutability": "nonpayable",
      "type": "function"
    }
  ],
  "bytecode": "0x60806040523480156200001157600080fd5b506040516200538138038062005381833981016040819052620000349162000593565b8551869086906200004d90600290602085019062000393565b5080516200006390600390602084019062000393565b5050600d805460ff19169055506001600160a01b038216620000d85760405162461bcd60e51b8152602060048201526024808201527f4552433732313a204d696e74657220616c6c6f7765722063616e2774206265206044820152631b9d5b1b60e21b60648201526084015b60405180910390fd5b8351620000ed90601690602087019062000393565b50601080546001600160a81b031916821515610100600160a81b031916176101006001600160a01b038516021790556200013060006200012a3390565b6200022e565b60005b8351811015620002215760006001600160a01b03168482815181106200015d576200015d6200070a565b60200260200101516001600160a01b03161415620001be5760405162461bcd60e51b815260206004820152601c60248201527f4552433732313a2041646d696e732063616e2774206265206e756c6c000000006044820152606401620000cf565b6200020c7f9f2df0fed2c77648de5860a4cc508cd0818c85b8b8a1ab4ceeef8d981c8956a6858381518110620001f857620001f86200070a565b60200260200101516200022e60201b60201c565b806200021881620006e0565b91505062000133565b5050505050505062000736565b6200023a82826200023e565b5050565b6200025582826200028160201b62001d471760201c565b60008281526001602090815260409091206200027c91839062001e3762000321821b17901c565b505050565b6000828152602081815260408083206001600160a01b038516845290915290205460ff166200023a576000828152602081815260408083206001600160a01b03851684529091529020805460ff19166001179055620002dd3390565b6001600160a01b0316816001600160a01b0316837f2f8788117e7eff1d82e926ec794901d17c78024a50270940304540a733656f0d60405160405180910390a45050565b600062000338836001600160a01b03841662000341565b90505b92915050565b60008181526001830160205260408120546200038a575081546001818101845560008481526020808220909301849055845484825282860190935260409020919091556200033b565b5060006200033b565b828054620003a190620006a3565b90600052602060002090601f016020900481019282620003c5576000855562000410565b82601f10620003e057805160ff191683800117855562000410565b8280016001018555821562000410579182015b8281111562000410578251825591602001919060010190620003f3565b506200041e92915062000422565b5090565b5b808211156200041e576000815560010162000423565b80516001600160a01b03811681146200045157600080fd5b919050565b600082601f8301126200046857600080fd5b815160206001600160401b0382111562000486576200048662000720565b8160051b6200049782820162000670565b838152828101908684018388018501891015620004b357600080fd5b600093505b85841015620004e157620004cc8162000439565b835260019390930192918401918401620004b8565b50979650505050505050565b805180151581146200045157600080fd5b600082601f8301126200051057600080fd5b81516001600160401b038111156200052c576200052c62000720565b602062000542601f8301601f1916820162000670565b82815285828487010111156200055757600080fd5b60005b83811015620005775785810183015182820184015282016200055a565b83811115620005895760008385840101525b5095945050505050565b60008060008060008060c08789031215620005ad57600080fd5b86516001600160401b0380821115620005c557600080fd5b620005d38a838b01620004fe565b97506020890151915080821115620005ea57600080fd5b620005f88a838b01620004fe565b965060408901519150808211156200060f57600080fd5b6200061d8a838b01620004fe565b955060608901519150808211156200063457600080fd5b506200064389828a0162000456565b935050620006546080880162000439565b91506200066460a08801620004ed565b90509295509295509295565b604051601f8201601f191681016001600160401b03811182821017156200069b576200069b62000720565b604052919050565b600181811c90821680620006b857607f821691505b60208210811415620006da57634e487b7160e01b600052602260045260246000fd5b50919050565b60006000198214156200070357634e487b7160e01b600052601160045260246000fd5b5060010190565b634e487b7160e01b600052603260045260246000fd5b634e487b7160e01b600052604160045260246000fd5b614c3b80620007466000396000f3fe608060405234801561001057600080fd5b50600436106102f45760003560e01c806391d1485411610191578063bf8712c5116100e3578063d539139311610097578063e495be6c11610071578063e495be6c146106bd578063e985e9c5146106d0578063f577a5001461071957600080fd5b8063d539139314610670578063d547741f14610697578063e1c7383e146106aa57600080fd5b8063ca15c873116100c8578063ca15c8731461062b578063d0fcc0041461063e578063d14dd2f21461064957600080fd5b8063bf8712c5146105f5578063c87b56dd1461061857600080fd5b8063a906c9a111610145578063ae601d951161011f578063ae601d95146105af578063b4cfa9f9146105cf578063b88d4fde146105e257600080fd5b8063a906c9a114610569578063a952580c1461057c578063ab4dc7ba1461059c57600080fd5b80639907119011610176578063990711901461053b578063a217fddf1461054e578063a22cb4651461055657600080fd5b806391d14854146104ef57806395d89b411461053357600080fd5b80632f745c591161024a5780634f6ccce7116101fe57806370a08231116101d857806370a08231146104c15780638456cb59146104d45780639010d07c146104dc57600080fd5b80634f6ccce7146104905780635c975abb146104a35780636352211e146104ae57600080fd5b80633f4ba83a1161022f5780633f4ba83a1461046257806342842e0e1461046a57806342966c681461047d57600080fd5b80632f745c591461043c57806336568abe1461044f57600080fd5b806316f12c76116102ac57806323d183561161028657806323d18356146103f3578063248a9ca3146104065780632f2ff15d1461042957600080fd5b806316f12c761461039957806318160ddd146103ce57806323b872dd146103e057600080fd5b8063081812fc116102dd578063081812fc1461033657806308babc251461036e578063095ea7b31461038457600080fd5b806301ffc9a7146102f957806306fdde0314610321575b600080fd5b61030c61030736600461450d565b61073c565b60405190151581526020015b60405180910390f35b61032961074d565b60405161031891906147f7565b6103496103443660046144af565b6107df565b60405173ffffffffffffffffffffffffffffffffffffffff9091168152602001610318565b60125460405161ffff9091168152602001610318565b610397610392366004614407565b6108be565b005b610397601080547fffffffffffffffffffffffffffffffffffffffffffffffffffffffffffffff00811660ff90911615179055565b600a545b604051908152602001610318565b6103976103ee3660046141f5565b610a4b565b6103296104013660046144af565b610ac2565b6103d26104143660046144af565b60009081526020819052604090206001015490565b6103976104373660046144c8565b610b64565b6103d261044a366004614407565b610b8a565b61039761045d3660046144c8565b610c59565b610397610d0c565b6103976104783660046141f5565b610dcc565b61039761048b3660046144af565b610e53565b6103d261049e3660046144af565b610ef5565b600d5460ff1661030c565b6103496104bc3660046144af565b610fb3565b6103d26104cf3660046141a7565b611065565b610397611133565b6103496104ea3660046144eb565b6111f1565b61030c6104fd3660046144c8565b60009182526020828152604080842073ffffffffffffffffffffffffffffffffffffffff93909316845291905290205460ff1690565b610329611210565b6103976105493660046142d5565b61121f565b6103d2600081565b610397610564366004614299565b611383565b610397610577366004614349565b61138e565b61058f61058a366004614605565b6114ae565b604051610318919061480a565b6103976105aa366004614431565b6115e6565b6103d26105bd3660046144af565b60009081526013602052604090205490565b6103976105dd3660046144af565b611800565b6103976105f0366004614231565b6118f4565b61030c6106033660046144af565b600e6020526000908152604090205460ff1681565b6103296106263660046144af565b61196c565b6103d26106393660046144af565b611977565b60105460ff1661030c565b6103d27f9729b62c1a280a968a683045fd5bbd60b97be4a6b7b0a5b624c9bbc54d6f3b5981565b6103d27f9f2df0fed2c77648de5860a4cc508cd0818c85b8b8a1ab4ceeef8d981c8956a681565b6103976106a53660046144c8565b61198e565b6103976106b83660046145ab565b6119b4565b6103976106cb366004614547565b611afc565b61030c6106de3660046141c2565b73ffffffffffffffffffffffffffffffffffffffff918216600090815260076020908152604080832093909416825291909152205460ff1690565b61030c6107273660046144af565b6000908152600e602052604090205460ff1690565b600061074782611e59565b92915050565b60606002805461075c906149fa565b80601f0160208091040260200160405190810160405280929190818152602001828054610788906149fa565b80156107d55780601f106107aa576101008083540402835291602001916107d5565b820191906000526020600020905b8154815290600101906020018083116107b857829003601f168201915b5050505050905090565b60008181526004602052604081205473ffffffffffffffffffffffffffffffffffffffff16610895576040517f08c379a000000000000000000000000000000000000000000000000000000000815260206004820152602c60248201527f4552433732313a20617070726f76656420717565727920666f72206e6f6e657860448201527f697374656e7420746f6b656e000000000000000000000000000000000000000060648201526084015b60405180910390fd5b5060009081526006602052604090205473ffffffffffffffffffffffffffffffffffffffff1690565b60006108c982610fb3565b90508073ffffffffffffffffffffffffffffffffffffffff168373ffffffffffffffffffffffffffffffffffffffff161415610987576040517f08c379a000000000000000000000000000000000000000000000000000000000815260206004820152602160248201527f4552433732313a20617070726f76616c20746f2063757272656e74206f776e6560448201527f7200000000000000000000000000000000000000000000000000000000000000606482015260840161088c565b3373ffffffffffffffffffffffffffffffffffffffff821614806109b057506109b081336106de565b610a3c576040517f08c379a000000000000000000000000000000000000000000000000000000000815260206004820152603860248201527f4552433732313a20617070726f76652063616c6c6572206973206e6f74206f7760448201527f6e6572206e6f7220617070726f76656420666f7220616c6c0000000000000000606482015260840161088c565b610a468383611eaf565b505050565b60105460ff16610ab7576040517f08c379a000000000000000000000000000000000000000000000000000000000815260206004820152601e60248201527f4552433732313a20556e61626c6520746f207472616e73666572204e46540000604482015260640161088c565b610a46838383611f4f565b6000818152600f60205260409020805460609190610adf906149fa565b80601f0160208091040260200160405190810160405280929190818152602001828054610b0b906149fa565b8015610b585780601f10610b2d57610100808354040283529160200191610b58565b820191906000526020600020905b815481529060010190602001808311610b3b57829003601f168201915b50505050509050919050565b600082815260208190526040902060010154610b8081336121c1565b610a468383612291565b6000610b9583611065565b8210610c23576040517f08c379a000000000000000000000000000000000000000000000000000000000815260206004820152602b60248201527f455243373231456e756d657261626c653a206f776e657220696e646578206f7560448201527f74206f6620626f756e6473000000000000000000000000000000000000000000606482015260840161088c565b5073ffffffffffffffffffffffffffffffffffffffff919091166000908152600860209081526040808320938352929052205490565b73ffffffffffffffffffffffffffffffffffffffff81163314610cfe576040517f08c379a000000000000000000000000000000000000000000000000000000000815260206004820152602f60248201527f416363657373436f6e74726f6c3a2063616e206f6e6c792072656e6f756e636560448201527f20726f6c657320666f722073656c660000000000000000000000000000000000606482015260840161088c565b610d0882826122b3565b5050565b610d367f9729b62c1a280a968a683045fd5bbd60b97be4a6b7b0a5b624c9bbc54d6f3b59336104fd565b610dc2576040517f08c379a000000000000000000000000000000000000000000000000000000000815260206004820152603d60248201527f4552433732315072657365744d696e7465725061757365724175746f49643a2060448201527f6d7573742068617665206d696e74657220726f6c6520746f206d696e74000000606482015260840161088c565b610dca6122d5565b565b60105460ff16610e38576040517f08c379a000000000000000000000000000000000000000000000000000000000815260206004820152601e60248201527f4552433732313a20556e61626c6520746f207472616e73666572204e46540000604482015260640161088c565b610a46838383604051806020016040528060008152506123b6565b610e5d338261244c565b610ee9576040517f08c379a000000000000000000000000000000000000000000000000000000000815260206004820152603060248201527f4552433732314275726e61626c653a2063616c6c6572206973206e6f74206f7760448201527f6e6572206e6f7220617070726f76656400000000000000000000000000000000606482015260840161088c565b610ef2816125bc565b50565b6000610f00600a5490565b8210610f8e576040517f08c379a000000000000000000000000000000000000000000000000000000000815260206004820152602c60248201527f455243373231456e756d657261626c653a20676c6f62616c20696e646578206f60448201527f7574206f6620626f756e64730000000000000000000000000000000000000000606482015260840161088c565b600a8281548110610fa157610fa1614b79565b90600052602060002001549050919050565b60008181526004602052604081205473ffffffffffffffffffffffffffffffffffffffff1680610747576040517f08c379a000000000000000000000000000000000000000000000000000000000815260206004820152602960248201527f4552433732313a206f776e657220717565727920666f72206e6f6e657869737460448201527f656e7420746f6b656e0000000000000000000000000000000000000000000000606482015260840161088c565b600073ffffffffffffffffffffffffffffffffffffffff821661110a576040517f08c379a000000000000000000000000000000000000000000000000000000000815260206004820152602a60248201527f4552433732313a2062616c616e636520717565727920666f7220746865207a6560448201527f726f206164647265737300000000000000000000000000000000000000000000606482015260840161088c565b5073ffffffffffffffffffffffffffffffffffffffff1660009081526005602052604090205490565b61115d7f9729b62c1a280a968a683045fd5bbd60b97be4a6b7b0a5b624c9bbc54d6f3b59336104fd565b6111e9576040517f08c379a000000000000000000000000000000000000000000000000000000000815260206004820152603d60248201527f4552433732315072657365744d696e7465725061757365724175746f49643a2060448201527f6d7573742068617665206d696e74657220726f6c6520746f206d696e74000000606482015260840161088c565b610dca6125c5565b60008281526001602052604081206112099083612685565b9392505050565b60606003805461075c906149fa565b6112497f9729b62c1a280a968a683045fd5bbd60b97be4a6b7b0a5b624c9bbc54d6f3b59336104fd565b6112d5576040517f08c379a000000000000000000000000000000000000000000000000000000000815260206004820152603d60248201527f4552433732315072657365744d696e7465725061757365724175746f49643a2060448201527f6d7573742068617665206d696e74657220726f6c6520746f206d696e74000000606482015260840161088c565b6112e7836112e260155490565b612691565b6112f96112f360155490565b8361285f565b426013600061130760155490565b81526020019081526020016000208190555080600f600061132760155490565b81526020019081526020016000209080519060200190611348929190613ed2565b506015546040517f655433208e80147d2cbbe0379ba1144b0b1151a26584f5c34f59a1d7aa721ddc90600090a2610a46601580546001019055565b610d0833838361292f565b6040517fe495be6c000000000000000000000000000000000000000000000000000000008152309063e495be6c906113cc90859085906004016147c9565b600060405180830381600087803b1580156113e657600080fd5b505af11580156113fa573d6000803e3d6000fd5b5050505061140b856112e260155490565b61141d61141760155490565b8561285f565b426013600061142b60155490565b81526020019081526020016000208190555082600f600061144b60155490565b8152602001908152602001600020908051906020019061146c929190613ed2565b506015546040517f655433208e80147d2cbbe0379ba1144b0b1151a26584f5c34f59a1d7aa721ddc90600090a26114a7601580546001019055565b5050505050565b604080518082019091526060808252602082015261ffff82166000908152601160205260409081902081518083019092528054829082906114ee906149fa565b80601f016020809104026020016040519081016040528092919081815260200182805461151a906149fa565b80156115675780601f1061153c57610100808354040283529160200191611567565b820191906000526020600020905b81548152906001019060200180831161154a57829003601f168201915b50505050508152602001600182018054806020026020016040519081016040528092919081815260200182805480156115d657602002820191906000526020600020905b815473ffffffffffffffffffffffffffffffffffffffff1681526001909101906020018083116115ab575b5050505050815250509050919050565b6116107f9729b62c1a280a968a683045fd5bbd60b97be4a6b7b0a5b624c9bbc54d6f3b59336104fd565b61169c576040517f08c379a000000000000000000000000000000000000000000000000000000000815260206004820152603d60248201527f4552433732315072657365744d696e7465725061757365724175746f49643a2060448201527f6d7573742068617665206d696e74657220726f6c6520746f206d696e74000000606482015260840161088c565b815183511480156116ae575080518251145b80156116bb575060018351115b611721576040517f08c379a000000000000000000000000000000000000000000000000000000000815260206004820152601560248201527f4552433732313a20496e76616c696420646174612e0000000000000000000000604482015260640161088c565b60005b83518110156117fa573073ffffffffffffffffffffffffffffffffffffffff16639907119085838151811061175b5761175b614b79565b602002602001015185848151811061177557611775614b79565b602002602001015185858151811061178f5761178f614b79565b60200260200101516040518463ffffffff1660e01b81526004016117b593929190614788565b600060405180830381600087803b1580156117cf57600080fd5b505af11580156117e3573d6000803e3d6000fd5b5050505080806117f290614a70565b915050611724565b50505050565b61182a7f9729b62c1a280a968a683045fd5bbd60b97be4a6b7b0a5b624c9bbc54d6f3b59336104fd565b6118b6576040517f08c379a000000000000000000000000000000000000000000000000000000000815260206004820152603d60248201527f4552433732315072657365744d696e7465725061757365724175746f49643a2060448201527f6d7573742068617665206d696e74657220726f6c6520746f206d696e74000000606482015260840161088c565b6000908152600e6020526040902080547fffffffffffffffffffffffffffffffffffffffffffffffffffffffffffffff00811660ff90911615179055565b60105460ff16611960576040517f08c379a000000000000000000000000000000000000000000000000000000000815260206004820152601e60248201527f4552433732313a20556e61626c6520746f207472616e73666572204e46540000604482015260640161088c565b6117fa84848484612a5d565b606061074782612b00565b600081815260016020526040812061074790612ca5565b6000828152602081905260409020600101546119aa81336121c1565b610a4683836122b3565b6119de7f9729b62c1a280a968a683045fd5bbd60b97be4a6b7b0a5b624c9bbc54d6f3b59336104fd565b611a6a576040517f08c379a000000000000000000000000000000000000000000000000000000000815260206004820152603d60248201527f4552433732315072657365744d696e7465725061757365724175746f49643a2060448201527f6d7573742068617665206d696e74657220726f6c6520746f206d696e74000000606482015260840161088c565b60408051808201909152828152602081018290526012805460119160009161ffff169082611a9783614a4e565b91906101000a81548161ffff021916908361ffff16021790555061ffff1661ffff1681526020019081526020016000206000820151816000019080519060200190611ae3929190613ed2565b5060208281015180516114a79260018501920190613f56565b600081604051602001611b0f9190614673565b6040516020818303038152906040528051906020012090506000611b80826040517f19457468657265756d205369676e6564204d6573736167653a0a3332000000006020820152603c8101829052600090605c01604051602081830303815290604052805190602001209050919050565b90506000611b8e8286612caf565b60105490915073ffffffffffffffffffffffffffffffffffffffff8083166101009092041614611c40576040517f08c379a000000000000000000000000000000000000000000000000000000000815260206004820152602660248201527f54686973206d657373616765207761736e27742063726561746564206279204760448201527f6174657761790000000000000000000000000000000000000000000000000000606482015260840161088c565b601484604051611c509190614673565b9081526040519081900360200190205460ff1615611cf0576040517f08c379a000000000000000000000000000000000000000000000000000000000815260206004820152602c60248201527f54686973206e6f6e6365207761732075736564206f6e20612070726576696f7560448201527f73206465706c6f796d656e740000000000000000000000000000000000000000606482015260840161088c565b6001601485604051611d029190614673565b90815260405190819003602001902080549115157fffffffffffffffffffffffffffffffffffffffffffffffffffffffffffffff009092169190911790555050505050565b60008281526020818152604080832073ffffffffffffffffffffffffffffffffffffffff8516845290915290205460ff16610d085760008281526020818152604080832073ffffffffffffffffffffffffffffffffffffffff85168452909152902080547fffffffffffffffffffffffffffffffffffffffffffffffffffffffffffffff00166001179055611dd93390565b73ffffffffffffffffffffffffffffffffffffffff168173ffffffffffffffffffffffffffffffffffffffff16837f2f8788117e7eff1d82e926ec794901d17c78024a50270940304540a733656f0d60405160405180910390a45050565b60006112098373ffffffffffffffffffffffffffffffffffffffff8416612cd3565b60007fffffffff0000000000000000000000000000000000000000000000000000000082167f780e9d63000000000000000000000000000000000000000000000000000000001480610747575061074782612d22565b600081815260066020526040902080547fffffffffffffffffffffffff00000000000000000000000000000000000000001673ffffffffffffffffffffffffffffffffffffffff84169081179091558190611f0982610fb3565b73ffffffffffffffffffffffffffffffffffffffff167f8c5be1e5ebec7d5bd14f71427d1e84f3dd0314c0f7b2291e5b200ac8c7c3b92560405160405180910390a45050565b8273ffffffffffffffffffffffffffffffffffffffff16611f6f82610fb3565b73ffffffffffffffffffffffffffffffffffffffff1614612012576040517f08c379a000000000000000000000000000000000000000000000000000000000815260206004820152602560248201527f4552433732313a207472616e736665722066726f6d20696e636f72726563742060448201527f6f776e6572000000000000000000000000000000000000000000000000000000606482015260840161088c565b73ffffffffffffffffffffffffffffffffffffffff82166120b4576040517f08c379a0000000000000000000000000000000000000000000000000000000008152602060048201526024808201527f4552433732313a207472616e7366657220746f20746865207a65726f2061646460448201527f7265737300000000000000000000000000000000000000000000000000000000606482015260840161088c565b6120bf838383612dc4565b6120ca600082611eaf565b73ffffffffffffffffffffffffffffffffffffffff83166000908152600560205260408120805460019290612100908490614982565b909155505073ffffffffffffffffffffffffffffffffffffffff8216600090815260056020526040812080546001929061213b908490614919565b909155505060008181526004602052604080822080547fffffffffffffffffffffffff00000000000000000000000000000000000000001673ffffffffffffffffffffffffffffffffffffffff86811691821790925591518493918716917fddf252ad1be2c89b69c2b068fc378daa952ba7f163c4a11628f55a4df523b3ef91a4505050565b60008281526020818152604080832073ffffffffffffffffffffffffffffffffffffffff8516845290915290205460ff16610d08576122178173ffffffffffffffffffffffffffffffffffffffff166014612dcf565b612222836020612dcf565b6040516020016122339291906146be565b604080517fffffffffffffffffffffffffffffffffffffffffffffffffffffffffffffffe0818403018152908290527f08c379a000000000000000000000000000000000000000000000000000000000825261088c916004016147f7565b61229b8282611d47565b6000828152600160205260409020610a469082611e37565b6122bd8282613012565b6000828152600160205260409020610a4690826130c9565b600d5460ff16612341576040517f08c379a000000000000000000000000000000000000000000000000000000000815260206004820152601460248201527f5061757361626c653a206e6f7420706175736564000000000000000000000000604482015260640161088c565b600d80547fffffffffffffffffffffffffffffffffffffffffffffffffffffffffffffff001690557f5db9ee0a495bf2e6ff9c91a7834c1ba4fdd244a5e8aa4e537bd38aeae4b073aa335b60405173ffffffffffffffffffffffffffffffffffffffff909116815260200160405180910390a1565b6123c0338361244c565b611960576040517f08c379a000000000000000000000000000000000000000000000000000000000815260206004820152603160248201527f4552433732313a207472616e736665722063616c6c6572206973206e6f74206f60448201527f776e6572206e6f7220617070726f766564000000000000000000000000000000606482015260840161088c565b60008181526004602052604081205473ffffffffffffffffffffffffffffffffffffffff166124fd576040517f08c379a000000000000000000000000000000000000000000000000000000000815260206004820152602c60248201527f4552433732313a206f70657261746f7220717565727920666f72206e6f6e657860448201527f697374656e7420746f6b656e0000000000000000000000000000000000000000606482015260840161088c565b600061250883610fb3565b90508073ffffffffffffffffffffffffffffffffffffffff168473ffffffffffffffffffffffffffffffffffffffff16148061257757508373ffffffffffffffffffffffffffffffffffffffff1661255f846107df565b73ffffffffffffffffffffffffffffffffffffffff16145b806125b4575073ffffffffffffffffffffffffffffffffffffffff80821660009081526007602090815260408083209388168352929052205460ff165b949350505050565b610ef2816125bc565b600d5460ff1615612632576040517f08c379a000000000000000000000000000000000000000000000000000000000815260206004820152601060248201527f5061757361626c653a2070617573656400000000000000000000000000000000604482015260640161088c565b600d80547fffffffffffffffffffffffffffffffffffffffffffffffffffffffffffffff001660011790557f62e78cea01bee320cd4e420270b5ea74000d11b0c9f74754ebdbfc544b05a25861238c3390565b600061120983836130eb565b73ffffffffffffffffffffffffffffffffffffffff821661270e576040517f08c379a000000000000000000000000000000000000000000000000000000000815260206004820181905260248201527f4552433732313a206d696e7420746f20746865207a65726f2061646472657373604482015260640161088c565b60008181526004602052604090205473ffffffffffffffffffffffffffffffffffffffff161561279a576040517f08c379a000000000000000000000000000000000000000000000000000000000815260206004820152601c60248201527f4552433732313a20746f6b656e20616c7265616479206d696e74656400000000604482015260640161088c565b6127a660008383612dc4565b73ffffffffffffffffffffffffffffffffffffffff821660009081526005602052604081208054600192906127dc908490614919565b909155505060008181526004602052604080822080547fffffffffffffffffffffffff00000000000000000000000000000000000000001673ffffffffffffffffffffffffffffffffffffffff861690811790915590518392907fddf252ad1be2c89b69c2b068fc378daa952ba7f163c4a11628f55a4df523b3ef908290a45050565b60008281526004602052604090205473ffffffffffffffffffffffffffffffffffffffff16612910576040517f08c379a000000000000000000000000000000000000000000000000000000000815260206004820152602e60248201527f45524337323155524953746f726167653a2055524920736574206f66206e6f6e60448201527f6578697374656e7420746f6b656e000000000000000000000000000000000000606482015260840161088c565b6000828152600c602090815260409091208251610a4692840190613ed2565b8173ffffffffffffffffffffffffffffffffffffffff168373ffffffffffffffffffffffffffffffffffffffff1614156129c5576040517f08c379a000000000000000000000000000000000000000000000000000000000815260206004820152601960248201527f4552433732313a20617070726f766520746f2063616c6c657200000000000000604482015260640161088c565b73ffffffffffffffffffffffffffffffffffffffff83811660008181526007602090815260408083209487168084529482529182902080547fffffffffffffffffffffffffffffffffffffffffffffffffffffffffffffff001686151590811790915591519182527f17307eab39ab6107e8899845ad3d59bd9653f200f220920489ca2b5937696c31910160405180910390a3505050565b612a68848484611f4f565b612a7484848484613115565b6117fa576040517f08c379a000000000000000000000000000000000000000000000000000000000815260206004820152603260248201527f4552433732313a207472616e7366657220746f206e6f6e20455243373231526560448201527f63656976657220696d706c656d656e7465720000000000000000000000000000606482015260840161088c565b60008181526004602052604090205460609073ffffffffffffffffffffffffffffffffffffffff16612bb4576040517f08c379a000000000000000000000000000000000000000000000000000000000815260206004820152603160248201527f45524337323155524953746f726167653a2055524920717565727920666f722060448201527f6e6f6e6578697374656e7420746f6b656e000000000000000000000000000000606482015260840161088c565b6000828152600c602052604081208054612bcd906149fa565b80601f0160208091040260200160405190810160405280929190818152602001828054612bf9906149fa565b8015612c465780601f10612c1b57610100808354040283529160200191612c46565b820191906000526020600020905b815481529060010190602001808311612c2957829003601f168201915b505050505090506000612c57613314565b9050805160001415612c6a575092915050565b815115612c9c578082604051602001612c8492919061468f565b60405160208183030381529060405292505050919050565b6125b484613323565b6000610747825490565b6000806000612cbe8585613432565b91509150612ccb816134a2565b509392505050565b6000818152600183016020526040812054612d1a57508154600181810184556000848152602080822090930184905584548482528286019093526040902091909155610747565b506000610747565b60007fffffffff0000000000000000000000000000000000000000000000000000000082167f80ac58cd000000000000000000000000000000000000000000000000000000001480612db557507fffffffff0000000000000000000000000000000000000000000000000000000082167f5b5e139f00000000000000000000000000000000000000000000000000000000145b806107475750610747826136fb565b610a46838383613751565b60606000612dde836002614945565b612de9906002614919565b67ffffffffffffffff811115612e0157612e01614ba8565b6040519080825280601f01601f191660200182016040528015612e2b576020820181803683370190505b5090507f300000000000000000000000000000000000000000000000000000000000000081600081518110612e6257612e62614b79565b60200101907effffffffffffffffffffffffffffffffffffffffffffffffffffffffffffff1916908160001a9053507f780000000000000000000000000000000000000000000000000000000000000081600181518110612ec557612ec5614b79565b60200101907effffffffffffffffffffffffffffffffffffffffffffffffffffffffffffff1916908160001a9053506000612f01846002614945565b612f0c906001614919565b90505b6001811115612fa9577f303132333435363738396162636465660000000000000000000000000000000085600f1660108110612f4d57612f4d614b79565b1a60f81b828281518110612f6357612f63614b79565b60200101907effffffffffffffffffffffffffffffffffffffffffffffffffffffffffffff1916908160001a90535060049490941c93612fa2816149c5565b9050612f0f565b508315611209576040517f08c379a000000000000000000000000000000000000000000000000000000000815260206004820181905260248201527f537472696e67733a20686578206c656e67746820696e73756666696369656e74604482015260640161088c565b60008281526020818152604080832073ffffffffffffffffffffffffffffffffffffffff8516845290915290205460ff1615610d085760008281526020818152604080832073ffffffffffffffffffffffffffffffffffffffff8516808552925280832080547fffffffffffffffffffffffffffffffffffffffffffffffffffffffffffffff0016905551339285917ff6391f5c32d9c69d2a47ea670b442974b53935d1edc7fd64eb21e047a839171b9190a45050565b60006112098373ffffffffffffffffffffffffffffffffffffffff84166137ef565b600082600001828154811061310257613102614b79565b9060005260206000200154905092915050565b600073ffffffffffffffffffffffffffffffffffffffff84163b15613309576040517f150b7a0200000000000000000000000000000000000000000000000000000000815273ffffffffffffffffffffffffffffffffffffffff85169063150b7a029061318c90339089908890889060040161473f565b602060405180830381600087803b1580156131a657600080fd5b505af19250505080156131f4575060408051601f3d9081017fffffffffffffffffffffffffffffffffffffffffffffffffffffffffffffffe01682019092526131f19181019061452a565b60015b6132be573d808015613222576040519150601f19603f3d011682016040523d82523d6000602084013e613227565b606091505b5080516132b6576040517f08c379a000000000000000000000000000000000000000000000000000000000815260206004820152603260248201527f4552433732313a207472616e7366657220746f206e6f6e20455243373231526560448201527f63656976657220696d706c656d656e7465720000000000000000000000000000606482015260840161088c565b805181602001fd5b7fffffffff00000000000000000000000000000000000000000000000000000000167f150b7a02000000000000000000000000000000000000000000000000000000001490506125b4565b506001949350505050565b60606016805461075c906149fa565b60008181526004602052604090205460609073ffffffffffffffffffffffffffffffffffffffff166133d7576040517f08c379a000000000000000000000000000000000000000000000000000000000815260206004820152602f60248201527f4552433732314d657461646174613a2055524920717565727920666f72206e6f60448201527f6e6578697374656e7420746f6b656e0000000000000000000000000000000000606482015260840161088c565b60006133e1613314565b905060008151116134015760405180602001604052806000815250611209565b8061340b846138e2565b60405160200161341c92919061468f565b6040516020818303038152906040529392505050565b6000808251604114156134695760208301516040840151606085015160001a61345d87828585613a14565b9450945050505061349b565b8251604014156134935760208301516040840151613488868383613b2c565b93509350505061349b565b506000905060025b9250929050565b60008160048111156134b6576134b6614b1b565b14156134bf5750565b60018160048111156134d3576134d3614b1b565b141561353b576040517f08c379a000000000000000000000000000000000000000000000000000000000815260206004820152601860248201527f45434453413a20696e76616c6964207369676e61747572650000000000000000604482015260640161088c565b600281600481111561354f5761354f614b1b565b14156135b7576040517f08c379a000000000000000000000000000000000000000000000000000000000815260206004820152601f60248201527f45434453413a20696e76616c6964207369676e6174757265206c656e67746800604482015260640161088c565b60038160048111156135cb576135cb614b1b565b1415613659576040517f08c379a000000000000000000000000000000000000000000000000000000000815260206004820152602260248201527f45434453413a20696e76616c6964207369676e6174757265202773272076616c60448201527f7565000000000000000000000000000000000000000000000000000000000000606482015260840161088c565b600481600481111561366d5761366d614b1b565b1415610ef2576040517f08c379a000000000000000000000000000000000000000000000000000000000815260206004820152602260248201527f45434453413a20696e76616c6964207369676e6174757265202776272076616c60448201527f7565000000000000000000000000000000000000000000000000000000000000606482015260840161088c565b60007fffffffff0000000000000000000000000000000000000000000000000000000082167f5a05180f000000000000000000000000000000000000000000000000000000001480610747575061074782613b7e565b61375c838383613c15565b600d5460ff1615610a46576040517f08c379a000000000000000000000000000000000000000000000000000000000815260206004820152602b60248201527f4552433732315061757361626c653a20746f6b656e207472616e73666572207760448201527f68696c6520706175736564000000000000000000000000000000000000000000606482015260840161088c565b600081815260018301602052604081205480156138d8576000613813600183614982565b855490915060009061382790600190614982565b905081811461388c57600086600001828154811061384757613847614b79565b906000526020600020015490508087600001848154811061386a5761386a614b79565b6000918252602080832090910192909255918252600188019052604090208390555b855486908061389d5761389d614b4a565b600190038181906000526020600020016000905590558560010160008681526020019081526020016000206000905560019350505050610747565b6000915050610747565b60608161392257505060408051808201909152600181527f3000000000000000000000000000000000000000000000000000000000000000602082015290565b8160005b811561394c578061393681614a70565b91506139459050600a83614931565b9150613926565b60008167ffffffffffffffff81111561396757613967614ba8565b6040519080825280601f01601f191660200182016040528015613991576020820181803683370190505b5090505b84156125b4576139a6600183614982565b91506139b3600a86614aa9565b6139be906030614919565b60f81b8183815181106139d3576139d3614b79565b60200101907effffffffffffffffffffffffffffffffffffffffffffffffffffffffffffff1916908160001a905350613a0d600a86614931565b9450613995565b6000807f7fffffffffffffffffffffffffffffff5d576e7357a4501ddfe92f46681b20a0831115613a4b5750600090506003613b23565b8460ff16601b14158015613a6357508460ff16601c14155b15613a745750600090506004613b23565b6040805160008082526020820180845289905260ff881692820192909252606081018690526080810185905260019060a0016020604051602081039080840390855afa158015613ac8573d6000803e3d6000fd5b50506040517fffffffffffffffffffffffffffffffffffffffffffffffffffffffffffffffe0015191505073ffffffffffffffffffffffffffffffffffffffff8116613b1c57600060019250925050613b23565b9150600090505b94509492505050565b6000807f7fffffffffffffffffffffffffffffffffffffffffffffffffffffffffffffff831681613b6260ff86901c601b614919565b9050613b7087828885613a14565b935093505050935093915050565b60007fffffffff0000000000000000000000000000000000000000000000000000000082167f7965db0b00000000000000000000000000000000000000000000000000000000148061074757507f01ffc9a7000000000000000000000000000000000000000000000000000000007fffffffff00000000000000000000000000000000000000000000000000000000831614610747565b73ffffffffffffffffffffffffffffffffffffffff8316613c7d57613c7881600a80546000838152600b60205260408120829055600182018355919091527fc65a7bb8d6351c1cf70c95a316cc6a92839c986682d98bc35f958f4883f9d2a80155565b613cba565b8173ffffffffffffffffffffffffffffffffffffffff168373ffffffffffffffffffffffffffffffffffffffff1614613cba57613cba8382613d1b565b73ffffffffffffffffffffffffffffffffffffffff8216613cde57610a4681613dd2565b8273ffffffffffffffffffffffffffffffffffffffff168273ffffffffffffffffffffffffffffffffffffffff1614610a4657610a468282613e81565b60006001613d2884611065565b613d329190614982565b600083815260096020526040902054909150808214613d925773ffffffffffffffffffffffffffffffffffffffff841660009081526008602090815260408083208584528252808320548484528184208190558352600990915290208190555b50600091825260096020908152604080842084905573ffffffffffffffffffffffffffffffffffffffff9094168352600881528383209183525290812055565b600a54600090613de490600190614982565b6000838152600b6020526040812054600a8054939450909284908110613e0c57613e0c614b79565b9060005260206000200154905080600a8381548110613e2d57613e2d614b79565b6000918252602080832090910192909255828152600b9091526040808220849055858252812055600a805480613e6557613e65614b4a565b6001900381819060005260206000200160009055905550505050565b6000613e8c83611065565b73ffffffffffffffffffffffffffffffffffffffff9093166000908152600860209081526040808320868452825280832085905593825260099052919091209190915550565b828054613ede906149fa565b90600052602060002090601f016020900481019282613f005760008555613f46565b82601f10613f1957805160ff1916838001178555613f46565b82800160010185558215613f46579182015b82811115613f46578251825591602001919060010190613f2b565b50613f52929150613fd0565b5090565b828054828255906000526020600020908101928215613f46579160200282015b82811115613f4657825182547fffffffffffffffffffffffff00000000000000000000000000000000000000001673ffffffffffffffffffffffffffffffffffffffff909116178255602090920191600190910190613f76565b5b80821115613f525760008155600101613fd1565b803573ffffffffffffffffffffffffffffffffffffffff8116811461400957600080fd5b919050565b600082601f83011261401f57600080fd5b8135602061403461402f836148f5565b6148a6565b80838252828201915082860187848660051b890101111561405457600080fd5b60005b8581101561407a5761406882613fe5565b84529284019290840190600101614057565b5090979650505050505050565b600082601f83011261409857600080fd5b813560206140a861402f836148f5565b80838252828201915082860187848660051b89010111156140c857600080fd5b6000805b8681101561410b57823567ffffffffffffffff8111156140ea578283fd5b6140f88b88838d0101614119565b86525093850193918501916001016140cc565b509198975050505050505050565b600082601f83011261412a57600080fd5b813567ffffffffffffffff81111561414457614144614ba8565b61417560207fffffffffffffffffffffffffffffffffffffffffffffffffffffffffffffffe0601f840116016148a6565b81815284602083860101111561418a57600080fd5b816020850160208301376000918101602001919091529392505050565b6000602082840312156141b957600080fd5b61120982613fe5565b600080604083850312156141d557600080fd5b6141de83613fe5565b91506141ec60208401613fe5565b90509250929050565b60008060006060848603121561420a57600080fd5b61421384613fe5565b925061422160208501613fe5565b9150604084013590509250925092565b6000806000806080858703121561424757600080fd5b61425085613fe5565b935061425e60208601613fe5565b925060408501359150606085013567ffffffffffffffff81111561428157600080fd5b61428d87828801614119565b91505092959194509250565b600080604083850312156142ac57600080fd5b6142b583613fe5565b9150602083013580151581146142ca57600080fd5b809150509250929050565b6000806000606084860312156142ea57600080fd5b6142f384613fe5565b9250602084013567ffffffffffffffff8082111561431057600080fd5b61431c87838801614119565b9350604086013591508082111561433257600080fd5b5061433f86828701614119565b9150509250925092565b600080600080600060a0868803121561436157600080fd5b61436a86613fe5565b9450602086013567ffffffffffffffff8082111561438757600080fd5b61439389838a01614119565b955060408801359150808211156143a957600080fd5b6143b589838a01614119565b945060608801359150808211156143cb57600080fd5b6143d789838a01614119565b935060808801359150808211156143ed57600080fd5b506143fa88828901614119565b9150509295509295909350565b6000806040838503121561441a57600080fd5b61442383613fe5565b946020939093013593505050565b60008060006060848603121561444657600080fd5b833567ffffffffffffffff8082111561445e57600080fd5b61446a8783880161400e565b9450602086013591508082111561448057600080fd5b61448c87838801614087565b935060408601359150808211156144a257600080fd5b5061433f86828701614087565b6000602082840312156144c157600080fd5b5035919050565b600080604083850312156144db57600080fd5b823591506141ec60208401613fe5565b600080604083850312156144fe57600080fd5b50508035926020909101359150565b60006020828403121561451f57600080fd5b813561120981614bd7565b60006020828403121561453c57600080fd5b815161120981614bd7565b6000806040838503121561455a57600080fd5b823567ffffffffffffffff8082111561457257600080fd5b61457e86838701614119565b9350602085013591508082111561459457600080fd5b506145a185828601614119565b9150509250929050565b600080604083850312156145be57600080fd5b823567ffffffffffffffff808211156145d657600080fd5b6145e286838701614119565b935060208501359150808211156145f857600080fd5b506145a18582860161400e565b60006020828403121561461757600080fd5b813561ffff8116811461120957600080fd5b60008151808452614641816020860160208601614999565b601f017fffffffffffffffffffffffffffffffffffffffffffffffffffffffffffffffe0169290920160200192915050565b60008251614685818460208701614999565b9190910192915050565b600083516146a1818460208801614999565b8351908301906146b5818360208801614999565b01949350505050565b7f416363657373436f6e74726f6c3a206163636f756e74200000000000000000008152600083516146f6816017850160208801614999565b7f206973206d697373696e6720726f6c65200000000000000000000000000000006017918401918201528351614733816028840160208801614999565b01602801949350505050565b600073ffffffffffffffffffffffffffffffffffffffff80871683528086166020840152508360408301526080606083015261477e6080830184614629565b9695505050505050565b73ffffffffffffffffffffffffffffffffffffffff841681526060602082015260006147b76060830185614629565b828103604084015261477e8185614629565b6040815260006147dc6040830185614629565b82810360208401526147ee8185614629565b95945050505050565b6020815260006112096020830184614629565b6000602080835283516040828501526148266060850182614629565b858301518582037fffffffffffffffffffffffffffffffffffffffffffffffffffffffffffffffe0016040870152805180835290840192506000918401905b8083101561489b57835173ffffffffffffffffffffffffffffffffffffffff168252928401926001929092019190840190614865565b509695505050505050565b604051601f82017fffffffffffffffffffffffffffffffffffffffffffffffffffffffffffffffe016810167ffffffffffffffff811182821017156148ed576148ed614ba8565b604052919050565b600067ffffffffffffffff82111561490f5761490f614ba8565b5060051b60200190565b6000821982111561492c5761492c614abd565b500190565b60008261494057614940614aec565b500490565b6000817fffffffffffffffffffffffffffffffffffffffffffffffffffffffffffffffff048311821515161561497d5761497d614abd565b500290565b60008282101561499457614994614abd565b500390565b60005b838110156149b457818101518382015260200161499c565b838111156117fa5750506000910152565b6000816149d4576149d4614abd565b507fffffffffffffffffffffffffffffffffffffffffffffffffffffffffffffffff0190565b600181811c90821680614a0e57607f821691505b60208210811415614a48577f4e487b7100000000000000000000000000000000000000000000000000000000600052602260045260246000fd5b50919050565b600061ffff80831681811415614a6657614a66614abd565b6001019392505050565b60007fffffffffffffffffffffffffffffffffffffffffffffffffffffffffffffffff821415614aa257614aa2614abd565b5060010190565b600082614ab857614ab8614aec565b500690565b7f4e487b7100000000000000000000000000000000000000000000000000000000600052601160045260246000fd5b7f4e487b7100000000000000000000000000000000000000000000000000000000600052601260045260246000fd5b7f4e487b7100000000000000000000000000000000000000000000000000000000600052602160045260246000fd5b7f4e487b7100000000000000000000000000000000000000000000000000000000600052603160045260246000fd5b7f4e487b7100000000000000000000000000000000000000000000000000000000600052603260045260246000fd5b7f4e487b7100000000000000000000000000000000000000000000000000000000600052604160045260246000fd5b7fffffffff0000000000000000000000000000000000000000000000000000000081168114610ef257600080fdfea2646970667358221220e15b1d2f030947cecdc057efdad7262e70f36643838167e5dffa7e822e52f15064736f6c63430008070033",
  "linkReferences": {},
  "deployedLinkReferences": {}
}